{
  "contractName": "SimpleOraclizeContract",
  "abi": [
    {
      "constant": true,
      "inputs": [],
      "name": "XBTEUR",
      "outputs": [
        {
          "name": "",
          "type": "string"
        }
      ],
      "payable": false,
      "stateMutability": "view",
      "type": "function"
    },
    {
      "inputs": [],
      "payable": true,
      "stateMutability": "payable",
      "type": "constructor"
    },
    {
      "payable": true,
      "stateMutability": "payable",
      "type": "fallback"
    },
    {
      "anonymous": false,
      "inputs": [
        {
          "indexed": false,
          "name": "nextStep",
          "type": "string"
        }
      ],
      "name": "LogConstructorInitiated",
      "type": "event"
    },
    {
      "anonymous": false,
      "inputs": [
        {
          "indexed": false,
          "name": "price",
          "type": "string"
        }
      ],
      "name": "LogPriceUpdated",
      "type": "event"
    },
    {
      "anonymous": false,
      "inputs": [
        {
          "indexed": false,
          "name": "description",
          "type": "string"
        }
      ],
      "name": "LogNewOraclizeQuery",
      "type": "event"
    },
    {
      "constant": false,
      "inputs": [
        {
          "name": "myid",
          "type": "bytes32"
        },
        {
          "name": "result",
          "type": "string"
        }
      ],
      "name": "__callback",
      "outputs": [],
      "payable": false,
      "stateMutability": "nonpayable",
      "type": "function"
    },
    {
      "constant": false,
      "inputs": [
        {
          "name": "myid",
          "type": "bytes32"
        },
        {
          "name": "result",
          "type": "string"
        },
        {
          "name": "proof",
          "type": "bytes"
        }
      ],
      "name": "__callback",
      "outputs": [],
      "payable": false,
      "stateMutability": "nonpayable",
      "type": "function"
    },
    {
      "constant": false,
      "inputs": [],
      "name": "updatePrice",
      "outputs": [],
      "payable": true,
      "stateMutability": "payable",
      "type": "function"
    }
  ],
  "bytecode": "0x60806040527f11a3fca63f87bd67d7f9f72b744acc8be2193705e7a734ac3a773d35d259e87b60405180806020018281038252604b8152602001807f436f6e7374727563746f722077617320696e697469617465642e2043616c6c2081526020017f27757064617465507269636528292720746f2073656e6420746865204f72616381526020017f6c697a652051756572792e00000000000000000000000000000000000000000081525060600191505060405180910390a16113b5806100c76000396000f300608060405260043610610062576000357c0100000000000000000000000000000000000000000000000000000000900463ffffffff16806327dc297e1461006457806338bbfa50146100db578063673a7e2814610198578063fe7b6a2e146101a2575b005b34801561007057600080fd5b506100d96004803603810190808035600019169060200190929190803590602001908201803590602001908080601f0160208091040260200160405190810160405280939291908181526020018383808284378201915050505050509192919290505050610232565b005b3480156100e757600080fd5b506101966004803603810190808035600019169060200190929190803590602001908201803590602001908080601f0160208091040260200160405190810160405280939291908181526020018383808284378201915050505050509192919290803590602001908201803590602001908080601f016020809104026020016040519081016040528093929190818152602001838380828437820191505050505050919291929050505061032a565b005b6101a061032f565b005b3480156101ae57600080fd5b506101b7610481565b6040518080602001828103825283818151815260200191508051906020019080838360005b838110156101f75780820151818401526020810190506101dc565b50505050905090810190601f1680156102245780820380516001836020036101000a031916815260200191505b509250505060405180910390f35b61023a61051f565b73ffffffffffffffffffffffffffffffffffffffff163373ffffffffffffffffffffffffffffffffffffffff1614151561027357600080fd5b80600590805190602001906102899291906112e4565b507f71f1a5645e51a2da828ffcf79cc17da88eb25e1bca8b9dced23210847a4769c1816040518080602001828103825283818151815260200191508051906020019080838360005b838110156102ec5780820151818401526020810190506102d1565b50505050905090810190601f1680156103195780820380516001836020036101000a031916815260200191505b509250505060405180910390a15050565b505050565b7f621c2856e3b87f81235f8ac8a22bbb40a0142961960710d00b2b6c380902b57e6040518080602001828103825260358152602001807f4f7261636c697a65207175657279207761732073656e742c207374616e64696e81526020017f6720627920666f722074686520616e737765722e2e000000000000000000000081525060400191505060405180910390a161047e6040805190810160405280600381526020017f55524c0000000000000000000000000000000000000000000000000000000000815250608060405190810160405280604e81526020017f6a736f6e2868747470733a2f2f6170692e6b72616b656e2e636f6d2f302f707581526020017f626c69632f5469636b65723f706169723d585842545a455552292e726573756c81526020017f742e585842545a4555522e632e3000000000000000000000000000000000000081525061087d565b50565b60058054600181600116156101000203166002900480601f0160208091040260200160405190810160405280929190818152602001828054600181600116156101000203166002900480156105175780601f106104ec57610100808354040283529160200191610517565b820191906000526020600020905b8154815290600101906020018083116104fa57829003601f168201915b505050505081565b6000806000809054906101000a900473ffffffffffffffffffffffffffffffffffffffff1673ffffffffffffffffffffffffffffffffffffffff16148061058f5750600061058d6000809054906101000a900473ffffffffffffffffffffffffffffffffffffffff16610e1f565b145b156105a05761059e6000610e2a565b505b6000809054906101000a900473ffffffffffffffffffffffffffffffffffffffff1673ffffffffffffffffffffffffffffffffffffffff166338cc48316040518163ffffffff167c0100000000000000000000000000000000000000000000000000000000028152600401602060405180830381600087803b15801561062557600080fd5b505af1158015610639573d6000803e3d6000fd5b505050506040513d602081101561064f57600080fd5b810190808051906020019092919050505073ffffffffffffffffffffffffffffffffffffffff16600160009054906101000a900473ffffffffffffffffffffffffffffffffffffffff1673ffffffffffffffffffffffffffffffffffffffff161415156107b7576000809054906101000a900473ffffffffffffffffffffffffffffffffffffffff1673ffffffffffffffffffffffffffffffffffffffff166338cc48316040518163ffffffff167c0100000000000000000000000000000000000000000000000000000000028152600401602060405180830381600087803b15801561073b57600080fd5b505af115801561074f573d6000803e3d6000fd5b505050506040513d602081101561076557600080fd5b8101908080519060200190929190505050600160006101000a81548173ffffffffffffffffffffffffffffffffffffffff021916908373ffffffffffffffffffffffffffffffffffffffff1602179055505b600160009054906101000a900473ffffffffffffffffffffffffffffffffffffffff1673ffffffffffffffffffffffffffffffffffffffff1663c281d19e6040518163ffffffff167c0100000000000000000000000000000000000000000000000000000000028152600401602060405180830381600087803b15801561083d57600080fd5b505af1158015610851573d6000803e3d6000fd5b505050506040513d602081101561086757600080fd5b8101908080519060200190929190505050905090565b60008060008060009054906101000a900473ffffffffffffffffffffffffffffffffffffffff1673ffffffffffffffffffffffffffffffffffffffff1614806108ef575060006108ed6000809054906101000a900473ffffffffffffffffffffffffffffffffffffffff16610e1f565b145b15610900576108fe6000610e2a565b505b6000809054906101000a900473ffffffffffffffffffffffffffffffffffffffff1673ffffffffffffffffffffffffffffffffffffffff166338cc48316040518163ffffffff167c0100000000000000000000000000000000000000000000000000000000028152600401602060405180830381600087803b15801561098557600080fd5b505af1158015610999573d6000803e3d6000fd5b505050506040513d60208110156109af57600080fd5b810190808051906020019092919050505073ffffffffffffffffffffffffffffffffffffffff16600160009054906101000a900473ffffffffffffffffffffffffffffffffffffffff1673ffffffffffffffffffffffffffffffffffffffff16141515610b17576000809054906101000a900473ffffffffffffffffffffffffffffffffffffffff1673ffffffffffffffffffffffffffffffffffffffff166338cc48316040518163ffffffff167c0100000000000000000000000000000000000000000000000000000000028152600401602060405180830381600087803b158015610a9b57600080fd5b505af1158015610aaf573d6000803e3d6000fd5b505050506040513d6020811015610ac557600080fd5b8101908080519060200190929190505050600160006101000a81548173ffffffffffffffffffffffffffffffffffffffff021916908373ffffffffffffffffffffffffffffffffffffffff1602179055505b600160009054906101000a900473ffffffffffffffffffffffffffffffffffffffff1673ffffffffffffffffffffffffffffffffffffffff1663524f3889856040518263ffffffff167c01000000000000000000000000000000000000000000000000000000000281526004018080602001828103825283818151815260200191508051906020019080838360005b83811015610bc1578082015181840152602081019050610ba6565b50505050905090810190601f168015610bee5780820380516001836020036101000a031916815260200191505b5092505050602060405180830381600087803b158015610c0d57600080fd5b505af1158015610c21573d6000803e3d6000fd5b505050506040513d6020811015610c3757600080fd5b8101908080519060200190929190505050905062030d403a02670de0b6b3a764000001811115610c6d5760006001029150610e18565b600160009054906101000a900473ffffffffffffffffffffffffffffffffffffffff1673ffffffffffffffffffffffffffffffffffffffff1663adf59f9982600087876040518563ffffffff167c0100000000000000000000000000000000000000000000000000000000028152600401808481526020018060200180602001838103835285818151815260200191508051906020019080838360005b83811015610d25578082015181840152602081019050610d0a565b50505050905090810190601f168015610d525780820380516001836020036101000a031916815260200191505b50838103825284818151815260200191508051906020019080838360005b83811015610d8b578082015181840152602081019050610d70565b50505050905090810190601f168015610db85780820380516001836020036101000a031916815260200191505b50955050505050506020604051808303818588803b158015610dd957600080fd5b505af1158015610ded573d6000803e3d6000fd5b50505050506040513d6020811015610e0457600080fd5b810190808051906020019092919050505091505b5092915050565b6000813b9050919050565b6000610e34610e3b565b9050919050565b600080610e5b731d3b2638a7cc9f2cb3d298a3da7a90b67e5506ed610e1f565b1115610efc57731d3b2638a7cc9f2cb3d298a3da7a90b67e5506ed6000806101000a81548173ffffffffffffffffffffffffffffffffffffffff021916908373ffffffffffffffffffffffffffffffffffffffff160217905550610ef36040805190810160405280600b81526020017f6574685f6d61696e6e65740000000000000000000000000000000000000000008152506112ca565b600190506112c7565b6000610f1b73c03a2615d5efaf5f49f60b7bb6583eaec212fdf1610e1f565b1115610fbc5773c03a2615d5efaf5f49f60b7bb6583eaec212fdf16000806101000a81548173ffffffffffffffffffffffffffffffffffffffff021916908373ffffffffffffffffffffffffffffffffffffffff160217905550610fb36040805190810160405280600c81526020017f6574685f726f707374656e3300000000000000000000000000000000000000008152506112ca565b600190506112c7565b6000610fdb73b7a07bcf2ba2f2703b24c0691b5278999c59ac7e610e1f565b111561107c5773b7a07bcf2ba2f2703b24c0691b5278999c59ac7e6000806101000a81548173ffffffffffffffffffffffffffffffffffffffff021916908373ffffffffffffffffffffffffffffffffffffffff1602179055506110736040805190810160405280600981526020017f6574685f6b6f76616e00000000000000000000000000000000000000000000008152506112ca565b600190506112c7565b600061109b73146500cfd35b22e4a392fe0adc06de1a1368ed48610e1f565b111561113c5773146500cfd35b22e4a392fe0adc06de1a1368ed486000806101000a81548173ffffffffffffffffffffffffffffffffffffffff021916908373ffffffffffffffffffffffffffffffffffffffff1602179055506111336040805190810160405280600b81526020017f6574685f72696e6b6562790000000000000000000000000000000000000000008152506112ca565b600190506112c7565b600061115b736f485c8bf6fc43ea212e93bbf8ce046c7f1cb475610e1f565b11156111be57736f485c8bf6fc43ea212e93bbf8ce046c7f1cb4756000806101000a81548173ffffffffffffffffffffffffffffffffffffffff021916908373ffffffffffffffffffffffffffffffffffffffff160217905550600190506112c7565b60006111dd7320e12a1f859b3feae5fb2a0a32c18f5a65555bbf610e1f565b1115611240577320e12a1f859b3feae5fb2a0a32c18f5a65555bbf6000806101000a81548173ffffffffffffffffffffffffffffffffffffffff021916908373ffffffffffffffffffffffffffffffffffffffff160217905550600190506112c7565b600061125f7351efaf4c8b3c9afbd5ab9f4bbc82784ab6ef8faa610e1f565b11156112c2577351efaf4c8b3c9afbd5ab9f4bbc82784ab6ef8faa6000806101000a81548173ffffffffffffffffffffffffffffffffffffffff021916908373ffffffffffffffffffffffffffffffffffffffff160217905550600190506112c7565b600090505b90565b80600290805190602001906112e09291906112e4565b5050565b828054600181600116156101000203166002900490600052602060002090601f016020900481019282601f1061132557805160ff1916838001178555611353565b82800160010185558215611353579182015b82811115611352578251825591602001919060010190611337565b5b5090506113609190611364565b5090565b61138691905b8082111561138257600081600090555060010161136a565b5090565b905600a165627a7a723058209a3b1779e9486181fe1f954112630329ca78b92d92d89832fd0618c219465eb70029",
  "source": "pragma solidity ^0.4.19;\nimport \"./OraclizeAPI_0.5.sol\";\n\ncontract SimpleOraclizeContract is usingOraclize {\n\n    string public XBTEUR; // XBT is a synonym of BTC \n    event LogConstructorInitiated(string nextStep);\n    event LogPriceUpdated(string price);\n    event LogNewOraclizeQuery(string description);\n\n    function SimpleOraclizeContract() payable {\n        LogConstructorInitiated(\"Constructor was initiated. Call 'updatePrice()' to send the Oraclize Query.\");\n    }\n\n    function () payable {\n\n    }\n\n    function __callback(bytes32 myid, string result) {\n        if (msg.sender != oraclize_cbAddress()) revert();\n        XBTEUR = result;\n        LogPriceUpdated(result);\n    }\n\n    function updatePrice() payable {\n\n            LogNewOraclizeQuery(\"Oraclize query was sent, standing by for the answer..\");\n            oraclize_query(\"URL\", \"json(https://api.kraken.com/0/public/Ticker?pair=XXBTZEUR).result.XXBTZEUR.c.0\");\n    }\n}",
  "sourcePath": "/home/super/Eth/Oraclize/contracts/SimpleOraclizeContract.sol",
  "compiler": {
    "name": "solc",
    "version": "0.4.24+commit.e67f0147.Emscripten.clang"
  },
  "schemaVersion": "2.0.0",
  "updatedAt": "2018-11-28T20:57:29.815Z"
}